:100000000EC015C014C013C012C011C010C00FC064
:100010000EC00DC00CC00BC00AC009C008C011241E
:100020001FBECFE5D2E0DEBFCDBFB2D0C2C0E8CFA9
:10003000019728F0E0EDF7E03197F1F7F9CF089557
:100040000895000000000000000000000895B89826
:1000500088E28DB980EF8EB9779BFECFB89886B3D2
:100060008EB188E38DB980EF8EB9769BFECF8FB1CC
:1000700086958032E9F578993BC01FB8B89A8EE72B
:100080008EB9769BFECFB89880E78EB9769BFECF6F
:100090009FB11FB8B89A8EE78EB9769BFECFB898FD
:1000A00088E28DB980EF8EB9779BFECFB89886B382
:1000B0008EB188E38DB980EF8EB9769BFECF8FB17C
:1000C00086958032A9F4789B13C01FB8B89A8EE742
:1000D0008EB9769BFECF81E0890F8FB9B89A80E701
:1000E0008EB9769BFECFB8988EE78EB9769BFECF01
:1000F0000895CF93CBE2A5DFCDB9B29BFECFA0DFB1
:10010000CDB9769BF8CF9DDF8FB19FEF9FB9B89A9D
:10011000CF910895C098C29AB29BFECF91DFC09A4A
:1001200090DF8EB180720895CF93DF9388B385609E
:1001300088BB87B3856087BB8FEF8FB98AE28DB9A3
:1001400080EF8EB98EB1807B01F5C29AB29BFECF53
:1001500077DFC09875DFC298C09A779B16C0C298A7
:1001600080E28FB9D0EFDEB9C4DFB898CEEFCEB958
:10017000C0DF80FD0AC0C29888E78FB9DEB9B9DF59
:10018000B898CEB9B6DF80FFC5DFDF91CF91089573
:1001900014BE85E088BB8CE187BB82E084BB80E82D
:1001A00088B98DE080BD53DF84E690E041DFBCDF9D
:0601B000FFCFF894FFCF21
:00000001FF
